{
  "contractName": "Chorder",
  "abi": [
    {
      "constant": true,
      "inputs": [
        {
          "name": "interfaceId",
          "type": "bytes4"
        }
      ],
      "name": "supportsInterface",
      "outputs": [
        {
          "name": "",
          "type": "bool"
        }
      ],
      "payable": false,
      "stateMutability": "view",
      "type": "function"
    },
    {
      "constant": true,
      "inputs": [
        {
          "name": "tokenId",
          "type": "uint256"
        }
      ],
      "name": "getApproved",
      "outputs": [
        {
          "name": "",
          "type": "address"
        }
      ],
      "payable": false,
      "stateMutability": "view",
      "type": "function"
    },
    {
      "constant": false,
      "inputs": [
        {
          "name": "to",
          "type": "address"
        },
        {
          "name": "tokenId",
          "type": "uint256"
        }
      ],
      "name": "approve",
      "outputs": [],
      "payable": false,
      "stateMutability": "nonpayable",
      "type": "function"
    },
    {
      "constant": false,
      "inputs": [
        {
          "name": "from",
          "type": "address"
        },
        {
          "name": "to",
          "type": "address"
        },
        {
          "name": "tokenId",
          "type": "uint256"
        }
      ],
      "name": "transferFrom",
      "outputs": [],
      "payable": false,
      "stateMutability": "nonpayable",
      "type": "function"
    },
    {
      "constant": false,
      "inputs": [
        {
          "name": "from",
          "type": "address"
        },
        {
          "name": "to",
          "type": "address"
        },
        {
          "name": "tokenId",
          "type": "uint256"
        }
      ],
      "name": "safeTransferFrom",
      "outputs": [],
      "payable": false,
      "stateMutability": "nonpayable",
      "type": "function"
    },
    {
      "constant": true,
      "inputs": [
        {
          "name": "tokenId",
          "type": "uint256"
        }
      ],
      "name": "ownerOf",
      "outputs": [
        {
          "name": "",
          "type": "address"
        }
      ],
      "payable": false,
      "stateMutability": "view",
      "type": "function"
    },
    {
      "constant": true,
      "inputs": [
        {
          "name": "owner",
          "type": "address"
        }
      ],
      "name": "balanceOf",
      "outputs": [
        {
          "name": "",
          "type": "uint256"
        }
      ],
      "payable": false,
      "stateMutability": "view",
      "type": "function"
    },
    {
      "constant": false,
      "inputs": [
        {
          "name": "to",
          "type": "address"
        },
        {
          "name": "approved",
          "type": "bool"
        }
      ],
      "name": "setApprovalForAll",
      "outputs": [],
      "payable": false,
      "stateMutability": "nonpayable",
      "type": "function"
    },
    {
      "constant": false,
      "inputs": [
        {
          "name": "from",
          "type": "address"
        },
        {
          "name": "to",
          "type": "address"
        },
        {
          "name": "tokenId",
          "type": "uint256"
        },
        {
          "name": "_data",
          "type": "bytes"
        }
      ],
      "name": "safeTransferFrom",
      "outputs": [],
      "payable": false,
      "stateMutability": "nonpayable",
      "type": "function"
    },
    {
      "constant": true,
      "inputs": [
        {
          "name": "owner",
          "type": "address"
        },
        {
          "name": "operator",
          "type": "address"
        }
      ],
      "name": "isApprovedForAll",
      "outputs": [
        {
          "name": "",
          "type": "bool"
        }
      ],
      "payable": false,
      "stateMutability": "view",
      "type": "function"
    },
    {
      "inputs": [],
      "payable": false,
      "stateMutability": "nonpayable",
      "type": "constructor"
    },
    {
      "anonymous": false,
      "inputs": [
        {
          "indexed": true,
          "name": "from",
          "type": "address"
        },
        {
          "indexed": true,
          "name": "to",
          "type": "address"
        },
        {
          "indexed": true,
          "name": "tokenId",
          "type": "uint256"
        }
      ],
      "name": "Transfer",
      "type": "event"
    },
    {
      "anonymous": false,
      "inputs": [
        {
          "indexed": true,
          "name": "publisher",
          "type": "address"
        },
        {
          "indexed": true,
          "name": "movieId",
          "type": "uint256"
        }
      ],
      "name": "MoviePublished",
      "type": "event"
    },
    {
      "anonymous": false,
      "inputs": [
        {
          "indexed": true,
          "name": "resalePrice",
          "type": "uint256"
        },
        {
          "indexed": true,
          "name": "tokenId",
          "type": "uint256"
        },
        {
          "indexed": true,
          "name": "movieId",
          "type": "uint256"
        }
      ],
      "name": "ResalePriceSet",
      "type": "event"
    },
    {
      "anonymous": false,
      "inputs": [
        {
          "indexed": true,
          "name": "owner",
          "type": "address"
        },
        {
          "indexed": true,
          "name": "approved",
          "type": "address"
        },
        {
          "indexed": true,
          "name": "tokenId",
          "type": "uint256"
        }
      ],
      "name": "Approval",
      "type": "event"
    },
    {
      "anonymous": false,
      "inputs": [
        {
          "indexed": true,
          "name": "owner",
          "type": "address"
        },
        {
          "indexed": true,
          "name": "operator",
          "type": "address"
        },
        {
          "indexed": false,
          "name": "approved",
          "type": "bool"
        }
      ],
      "name": "ApprovalForAll",
      "type": "event"
    },
    {
      "constant": true,
      "inputs": [],
      "name": "name",
      "outputs": [
        {
          "name": "",
          "type": "string"
        }
      ],
      "payable": false,
      "stateMutability": "pure",
      "type": "function"
    },
    {
      "constant": true,
      "inputs": [],
      "name": "symbol",
      "outputs": [
        {
          "name": "",
          "type": "string"
        }
      ],
      "payable": false,
      "stateMutability": "pure",
      "type": "function"
    },
    {
      "constant": false,
      "inputs": [
        {
          "name": "_ipfshash",
          "type": "string"
        },
        {
          "name": "_movieId",
          "type": "uint256"
        },
        {
          "name": "_price",
          "type": "uint256"
        },
        {
          "name": "_transactionCommission",
          "type": "uint256"
        }
      ],
      "name": "addMovieDetails",
      "outputs": [],
      "payable": false,
      "stateMutability": "nonpayable",
      "type": "function"
    },
    {
      "constant": false,
      "inputs": [
        {
          "name": "_movieId",
          "type": "uint256"
        }
      ],
      "name": "buyFromPublisher",
      "outputs": [
        {
          "name": "",
          "type": "bool"
        }
      ],
      "payable": true,
      "stateMutability": "payable",
      "type": "function"
    },
    {
      "constant": false,
      "inputs": [
        {
          "name": "newPrice",
          "type": "uint256"
        },
        {
          "name": "tokenId",
          "type": "uint256"
        }
      ],
      "name": "setResalePrice",
      "outputs": [],
      "payable": false,
      "stateMutability": "nonpayable",
      "type": "function"
    },
    {
      "constant": false,
      "inputs": [
        {
          "name": "tokenId",
          "type": "uint256"
        }
      ],
      "name": "buyToken",
      "outputs": [],
      "payable": true,
      "stateMutability": "payable",
      "type": "function"
    },
    {
      "constant": false,
      "inputs": [
        {
          "name": "_to",
          "type": "address"
        },
        {
          "name": "_tokenId",
          "type": "uint256"
        }
      ],
      "name": "transfer",
      "outputs": [],
      "payable": false,
      "stateMutability": "nonpayable",
      "type": "function"
    },
    {
      "constant": true,
      "inputs": [
        {
          "name": "tokenId",
          "type": "uint256"
        }
      ],
      "name": "viewTokenData",
      "outputs": [
        {
          "name": "",
          "type": "string"
        }
      ],
      "payable": false,
      "stateMutability": "view",
      "type": "function"
    },
    {
      "constant": false,
      "inputs": [],
      "name": "withdrawBalance",
      "outputs": [],
      "payable": true,
      "stateMutability": "payable",
      "type": "function"
    }
  ],
  "bytecode": "0x60806040523480156200001157600080fd5b506200004f6301ffc9a77c010000000000000000000000000000000000000000000000000000000002620000d3640100000000026401000000009004565b6200008c6380ac58cd7c010000000000000000000000000000000000000000000000000000000002620000d3640100000000026401000000009004565b33600560006101000a81548173ffffffffffffffffffffffffffffffffffffffff021916908373ffffffffffffffffffffffffffffffffffffffff160217905550620001fa565b63ffffffff7c010000000000000000000000000000000000000000000000000000000002817bffffffffffffffffffffffffffffffffffffffffffffffffffffffff1916141515156200018e576040517f08c379a000000000000000000000000000000000000000000000000000000000815260040180806020018281038252601c8152602001807f4552433136353a20696e76616c696420696e746572666163652069640000000081525060200191505060405180910390fd5b6001600080837bffffffffffffffffffffffffffffffffffffffffffffffffffffffff19167bffffffffffffffffffffffffffffffffffffffffffffffffffffffff1916815260200190815260200160002060006101000a81548160ff02191690831515021790555050565b612f86806200020a6000396000f3fe608060405260043610610107576000357c0100000000000000000000000000000000000000000000000000000000900463ffffffff16806301ffc9a71461010c57806306fdde031461017e578063081812fc1461020e578063095ea7b31461028957806323b872dd146102e4578063254cc9811461035f5780632d296bf11461041357806342842e0e146104415780635fd8c710146104bc5780636352211e146104c657806370a082311461054157806395d89b41146105a6578063a22cb46514610636578063a9059cbb14610693578063b88d4fde146106ee578063d444745d14610800578063d742bf1e14610846578063e985e9c51461092c578063f7e2aaab146109b5575b600080fd5b34801561011857600080fd5b506101646004803603602081101561012f57600080fd5b8101908080357bffffffffffffffffffffffffffffffffffffffffffffffffffffffff191690602001909291905050506109fa565b604051808215151515815260200191505060405180910390f35b34801561018a57600080fd5b50610193610a61565b6040518080602001828103825283818151815260200191508051906020019080838360005b838110156101d35780820151818401526020810190506101b8565b50505050905090810190601f1680156102005780820380516001836020036101000a031916815260200191505b509250505060405180910390f35b34801561021a57600080fd5b506102476004803603602081101561023157600080fd5b8101908080359060200190929190505050610a9e565b604051808273ffffffffffffffffffffffffffffffffffffffff1673ffffffffffffffffffffffffffffffffffffffff16815260200191505060405180910390f35b34801561029557600080fd5b506102e2600480360360408110156102ac57600080fd5b81019080803573ffffffffffffffffffffffffffffffffffffffff16906020019092919080359060200190929190505050610b7e565b005b3480156102f057600080fd5b5061035d6004803603606081101561030757600080fd5b81019080803573ffffffffffffffffffffffffffffffffffffffff169060200190929190803573ffffffffffffffffffffffffffffffffffffffff16906020019092919080359060200190929190505050610de1565b005b34801561036b57600080fd5b506103986004803603602081101561038257600080fd5b8101908080359060200190929190505050610e95565b6040518080602001828103825283818151815260200191508051906020019080838360005b838110156103d85780820151818401526020810190506103bd565b50505050905090810190601f1680156104055780820380516001836020036101000a031916815260200191505b509250505060405180910390f35b61043f6004803603602081101561042957600080fd5b810190808035906020019092919050505061109b565b005b34801561044d57600080fd5b506104ba6004803603606081101561046457600080fd5b81019080803573ffffffffffffffffffffffffffffffffffffffff169060200190929190803573ffffffffffffffffffffffffffffffffffffffff169060200190929190803590602001909291905050506113ec565b005b6104c461140d565b005b3480156104d257600080fd5b506104ff600480360360208110156104e957600080fd5b81019080803590602001909291905050506115b8565b604051808273ffffffffffffffffffffffffffffffffffffffff1673ffffffffffffffffffffffffffffffffffffffff16815260200191505060405180910390f35b34801561054d57600080fd5b506105906004803603602081101561056457600080fd5b81019080803573ffffffffffffffffffffffffffffffffffffffff1690602001909291905050506116c5565b6040518082815260200191505060405180910390f35b3480156105b257600080fd5b506105bb6117df565b6040518080602001828103825283818151815260200191508051906020019080838360005b838110156105fb5780820151818401526020810190506105e0565b50505050905090810190601f1680156106285780820380516001836020036101000a031916815260200191505b509250505060405180910390f35b34801561064257600080fd5b506106916004803603604081101561065957600080fd5b81019080803573ffffffffffffffffffffffffffffffffffffffff16906020019092919080351515906020019092919050505061181c565b005b34801561069f57600080fd5b506106ec600480360360408110156106b657600080fd5b81019080803573ffffffffffffffffffffffffffffffffffffffff169060200190929190803590602001909291905050506119c1565b005b3480156106fa57600080fd5b506107fe6004803603608081101561071157600080fd5b81019080803573ffffffffffffffffffffffffffffffffffffffff169060200190929190803573ffffffffffffffffffffffffffffffffffffffff169060200190929190803590602001909291908035906020019064010000000081111561077857600080fd5b82018360208201111561078a57600080fd5b803590602001918460018302840111640100000000831117156107ac57600080fd5b91908080601f016020809104026020016040519081016040528093929190818152602001838380828437600081840152601f19601f820116905080830192505050505050509192919290505050611b33565b005b61082c6004803603602081101561081657600080fd5b8101908080359060200190929190505050611bea565b604051808215151515815260200191505060405180910390f35b34801561085257600080fd5b5061092a6004803603608081101561086957600080fd5b810190808035906020019064010000000081111561088657600080fd5b82018360208201111561089857600080fd5b803590602001918460018302840111640100000000831117156108ba57600080fd5b91908080601f016020809104026020016040519081016040528093929190818152602001838380828437600081840152601f19601f820116905080830192505050505050509192919290803590602001909291908035906020019092919080359060200190929190505050611e1c565b005b34801561093857600080fd5b5061099b6004803603604081101561094f57600080fd5b81019080803573ffffffffffffffffffffffffffffffffffffffff169060200190929190803573ffffffffffffffffffffffffffffffffffffffff169060200190929190505050612022565b604051808215151515815260200191505060405180910390f35b3480156109c157600080fd5b506109f8600480360360408110156109d857600080fd5b8101908080359060200190929190803590602001909291905050506120b6565b005b6000806000837bffffffffffffffffffffffffffffffffffffffffffffffffffffffff19167bffffffffffffffffffffffffffffffffffffffffffffffffffffffff1916815260200190815260200160002060009054906101000a900460ff169050919050565b60606040805190810160405280600c81526020017f43686f72646572546f6b656e0000000000000000000000000000000000000000815250905090565b6000610aa98261224f565b1515610b43576040517f08c379a000000000000000000000000000000000000000000000000000000000815260040180806020018281038252602c8152602001807f4552433732313a20617070726f76656420717565727920666f72206e6f6e657881526020017f697374656e7420746f6b656e000000000000000000000000000000000000000081525060400191505060405180910390fd5b6002600083815260200190815260200160002060009054906101000a900473ffffffffffffffffffffffffffffffffffffffff169050919050565b6000610b89826115b8565b90508073ffffffffffffffffffffffffffffffffffffffff168373ffffffffffffffffffffffffffffffffffffffff1614151515610c55576040517f08c379a00000000000000000000000000000000000000000000000000000000081526004018080602001828103825260218152602001807f4552433732313a20617070726f76616c20746f2063757272656e74206f776e6581526020017f720000000000000000000000000000000000000000000000000000000000000081525060400191505060405180910390fd5b8073ffffffffffffffffffffffffffffffffffffffff163373ffffffffffffffffffffffffffffffffffffffff161480610c955750610c948133612022565b5b1515610d2f576040517f08c379a00000000000000000000000000000000000000000000000000000000081526004018080602001828103825260388152602001807f4552433732313a20617070726f76652063616c6c6572206973206e6f74206f7781526020017f6e6572206e6f7220617070726f76656420666f7220616c6c000000000000000081525060400191505060405180910390fd5b826002600084815260200190815260200160002060006101000a81548173ffffffffffffffffffffffffffffffffffffffff021916908373ffffffffffffffffffffffffffffffffffffffff160217905550818373ffffffffffffffffffffffffffffffffffffffff168273ffffffffffffffffffffffffffffffffffffffff167f8c5be1e5ebec7d5bd14f71427d1e84f3dd0314c0f7b2291e5b200ac8c7c3b92560405160405180910390a4505050565b610deb33826122c1565b1515610e85576040517f08c379a00000000000000000000000000000000000000000000000000000000081526004018080602001828103825260318152602001807f4552433732313a207472616e736665722063616c6c6572206973206e6f74206f81526020017f776e6572206e6f7220617070726f76656400000000000000000000000000000081525060400191505060405180910390fd5b610e908383836123fa565b505050565b6060610ea08261224f565b1515610f14576040517f08c379a00000000000000000000000000000000000000000000000000000000081526004018080602001828103825260148152602001807f546f6b656e20646f65736e27742065786973742100000000000000000000000081525060200191505060405180910390fd5b3373ffffffffffffffffffffffffffffffffffffffff16610f34836115b8565b73ffffffffffffffffffffffffffffffffffffffff16141515610fe5576040517f08c379a00000000000000000000000000000000000000000000000000000000081526004018080602001828103825260248152602001807f596f7520617265206e6f7420746865206f776e6572206f66207468697320746f81526020017f6b656e210000000000000000000000000000000000000000000000000000000081525060400191505060405180910390fd5b600b60008381526020019081526020016000206000018054600181600116156101000203166002900480601f01602080910402602001604051908101604052809291908181526020018280546001816001161561010002031660029004801561108f5780601f106110645761010080835404028352916020019161108f565b820191906000526020600020905b81548152906001019060200180831161107257829003601f168201915b50505050509050919050565b600115156009600083815260200190815260200160002060010160009054906101000a900460ff161515141515611160576040517f08c379a00000000000000000000000000000000000000000000000000000000081526004018080602001828103825260308152602001807f5468697320746f6b656e206861736e2774206265656e2070757420666f72207381526020017f616c6520627920746865206f776e65720000000000000000000000000000000081525060400191505060405180910390fd5b60096000828152602001908152602001600020600001543410151515611214576040517f08c379a000000000000000000000000000000000000000000000000000000000815260040180806020018281038252603a8152602001807f596f757220707269636520646f65736e2774206d61746368207468652070726981526020017f636520676976656e2062792074686520746f6b656e4f776e657200000000000081525060400191505060405180910390fd5b6000606460076000600960008681526020019081526020016000206002015481526020019081526020016000206002015481151561124e57fe5b043402905080600a6000600760006009600088815260200190815260200160002060020154815260200190815260200160002060010160009054906101000a900473ffffffffffffffffffffffffffffffffffffffff1673ffffffffffffffffffffffffffffffffffffffff1673ffffffffffffffffffffffffffffffffffffffff16815260200190815260200160002060008282540192505081905550803403600a60006112fc856115b8565b73ffffffffffffffffffffffffffffffffffffffff1673ffffffffffffffffffffffffffffffffffffffff16815260200190815260200160002060008282540192505081905550813373ffffffffffffffffffffffffffffffffffffffff16611364846115b8565b73ffffffffffffffffffffffffffffffffffffffff167fddf252ad1be2c89b69c2b068fc378daa952ba7f163c4a11628f55a4df523b3ef60405160405180910390a46113b96113b2836115b8565b3384610de1565b60006009600084815260200190815260200160002060010160006101000a81548160ff0219169083151502179055505050565b6114088383836020604051908101604052806000815250611b33565b505050565b6000600a60003373ffffffffffffffffffffffffffffffffffffffff1673ffffffffffffffffffffffffffffffffffffffff16815260200190815260200160002054141515156114eb576040517f08c379a00000000000000000000000000000000000000000000000000000000081526004018080602001828103825260268152602001807f596f7520646f6e2774206861766520616e792062616c616e636520746f20776981526020017f746864726177000000000000000000000000000000000000000000000000000081525060400191505060405180910390fd5b3373ffffffffffffffffffffffffffffffffffffffff166108fc600a60003373ffffffffffffffffffffffffffffffffffffffff1673ffffffffffffffffffffffffffffffffffffffff168152602001908152602001600020549081150290604051600060405180830381858888f19350505050158015611570573d6000803e3d6000fd5b506000600a60003373ffffffffffffffffffffffffffffffffffffffff1673ffffffffffffffffffffffffffffffffffffffff16815260200190815260200160002081905550565b6000806001600084815260200190815260200160002060009054906101000a900473ffffffffffffffffffffffffffffffffffffffff169050600073ffffffffffffffffffffffffffffffffffffffff168173ffffffffffffffffffffffffffffffffffffffff16141515156116bc576040517f08c379a00000000000000000000000000000000000000000000000000000000081526004018080602001828103825260298152602001807f4552433732313a206f776e657220717565727920666f72206e6f6e657869737481526020017f656e7420746f6b656e000000000000000000000000000000000000000000000081525060400191505060405180910390fd5b80915050919050565b60008073ffffffffffffffffffffffffffffffffffffffff168273ffffffffffffffffffffffffffffffffffffffff1614151515611791576040517f08c379a000000000000000000000000000000000000000000000000000000000815260040180806020018281038252602a8152602001807f4552433732313a2062616c616e636520717565727920666f7220746865207a6581526020017f726f20616464726573730000000000000000000000000000000000000000000081525060400191505060405180910390fd5b6117d8600360008473ffffffffffffffffffffffffffffffffffffffff1673ffffffffffffffffffffffffffffffffffffffff1681526020019081526020016000206126df565b9050919050565b60606040805190810160405280600381526020017f4348540000000000000000000000000000000000000000000000000000000000815250905090565b3373ffffffffffffffffffffffffffffffffffffffff168273ffffffffffffffffffffffffffffffffffffffff16141515156118c0576040517f08c379a00000000000000000000000000000000000000000000000000000000081526004018080602001828103825260198152602001807f4552433732313a20617070726f766520746f2063616c6c65720000000000000081525060200191505060405180910390fd5b80600460003373ffffffffffffffffffffffffffffffffffffffff1673ffffffffffffffffffffffffffffffffffffffff16815260200190815260200160002060008473ffffffffffffffffffffffffffffffffffffffff1673ffffffffffffffffffffffffffffffffffffffff16815260200190815260200160002060006101000a81548160ff0219169083151502179055508173ffffffffffffffffffffffffffffffffffffffff163373ffffffffffffffffffffffffffffffffffffffff167f17307eab39ab6107e8899845ad3d59bd9653f200f220920489ca2b5937696c3183604051808215151515815260200191505060405180910390a35050565b3373ffffffffffffffffffffffffffffffffffffffff166119e1826115b8565b73ffffffffffffffffffffffffffffffffffffffff16141515611a92576040517f08c379a00000000000000000000000000000000000000000000000000000000081526004018080602001828103825260248152602001807f596f7520617265206e6f7420746865206f776e6572206f66207468697320746f81526020017f6b656e210000000000000000000000000000000000000000000000000000000081525060400191505060405180910390fd5b611aa5611a9e826115b8565b8383610de1565b60006009600083815260200190815260200160002060010160006101000a81548160ff021916908315150217905550808273ffffffffffffffffffffffffffffffffffffffff163373ffffffffffffffffffffffffffffffffffffffff167fddf252ad1be2c89b69c2b068fc378daa952ba7f163c4a11628f55a4df523b3ef60405160405180910390a45050565b611b3e848484610de1565b611b4a848484846126ed565b1515611be4576040517f08c379a00000000000000000000000000000000000000000000000000000000081526004018080602001828103825260328152602001807f4552433732313a207472616e7366657220746f206e6f6e20455243373231526581526020017f63656976657220696d706c656d656e746572000000000000000000000000000081525060400191505060405180910390fd5b50505050565b60008073ffffffffffffffffffffffffffffffffffffffff166007600084815260200190815260200160002060010160009054906101000a900473ffffffffffffffffffffffffffffffffffffffff1673ffffffffffffffffffffffffffffffffffffffff1614151515611cc6576040517f08c379a00000000000000000000000000000000000000000000000000000000081526004018080602001828103825260168152602001807f4d6f76696520646f6573206e6f7420657869737420210000000000000000000081525060200191505060405180910390fd5b60086000838152602001908152602001600020543410151515611d77576040517f08c379a000000000000000000000000000000000000000000000000000000000815260040180806020018281038252603f8152602001807f496e73756666696369656e742066756e6473202120506c65617365207061792081526020017f746865207072696365206173207365742062792074686520617574686f722e0081525060400191505060405180910390fd5b6000611d8283612910565b9050611d8f33828561297b565b34600a60006007600087815260200190815260200160002060010160009054906101000a900473ffffffffffffffffffffffffffffffffffffffff1673ffffffffffffffffffffffffffffffffffffffff1673ffffffffffffffffffffffffffffffffffffffff168152602001908152602001600020600082825401925050819055506001915050919050565b600073ffffffffffffffffffffffffffffffffffffffff166007600085815260200190815260200160002060010160009054906101000a900473ffffffffffffffffffffffffffffffffffffffff1673ffffffffffffffffffffffffffffffffffffffff16141515611f1c576040517f08c379a00000000000000000000000000000000000000000000000000000000081526004018080602001828103825260268152602001807f54686973206d6f7669652068617320616c7265616479206265656e207075626c81526020017f697368656421000000000000000000000000000000000000000000000000000081525060400191505060405180910390fd5b83600760008581526020019081526020016000206000019080519060200190611f46929190612e2e565b50336007600085815260200190815260200160002060010160006101000a81548173ffffffffffffffffffffffffffffffffffffffff021916908373ffffffffffffffffffffffffffffffffffffffff16021790555080600760008581526020019081526020016000206002018190555066038d7ea4c6800082026008600085815260200190815260200160002081905550823373ffffffffffffffffffffffffffffffffffffffff167f3d97e3131067c7f3d958fe2f06d45904613d2cff282d82bbeba827c954d66f7e60405160405180910390a350505050565b6000600460008473ffffffffffffffffffffffffffffffffffffffff1673ffffffffffffffffffffffffffffffffffffffff16815260200190815260200160002060008373ffffffffffffffffffffffffffffffffffffffff1673ffffffffffffffffffffffffffffffffffffffff16815260200190815260200160002060009054906101000a900460ff16905092915050565b3373ffffffffffffffffffffffffffffffffffffffff166120d6826115b8565b73ffffffffffffffffffffffffffffffffffffffff16141515612187576040517f08c379a00000000000000000000000000000000000000000000000000000000081526004018080602001828103825260248152602001807f596f7520617265206e6f7420746865206f776e6572206f66207468697320746f81526020017f6b656e210000000000000000000000000000000000000000000000000000000081525060400191505060405180910390fd5b66038d7ea4c680008202600960008381526020019081526020016000206000018190555060016009600083815260200190815260200160002060010160006101000a81548160ff021916908315150217905550612206600660009054906101000a900473ffffffffffffffffffffffffffffffffffffffff1682610b7e565b600960008281526020019081526020016000206002015481837f6d457a6c26cf0dbe5cb6ce14689fed83eecfa6001b27c4db898de0148fff55ab60405160405180910390a45050565b6000806001600084815260200190815260200160002060009054906101000a900473ffffffffffffffffffffffffffffffffffffffff169050600073ffffffffffffffffffffffffffffffffffffffff168173ffffffffffffffffffffffffffffffffffffffff161415915050919050565b60006122cc8261224f565b1515612366576040517f08c379a000000000000000000000000000000000000000000000000000000000815260040180806020018281038252602c8152602001807f4552433732313a206f70657261746f7220717565727920666f72206e6f6e657881526020017f697374656e7420746f6b656e000000000000000000000000000000000000000081525060400191505060405180910390fd5b6000612371836115b8565b90508073ffffffffffffffffffffffffffffffffffffffff168473ffffffffffffffffffffffffffffffffffffffff1614806123e057508373ffffffffffffffffffffffffffffffffffffffff166123c884610a9e565b73ffffffffffffffffffffffffffffffffffffffff16145b806123f157506123f08185612022565b5b91505092915050565b8273ffffffffffffffffffffffffffffffffffffffff1661241a826115b8565b73ffffffffffffffffffffffffffffffffffffffff161415156124cb576040517f08c379a00000000000000000000000000000000000000000000000000000000081526004018080602001828103825260298152602001807f4552433732313a207472616e73666572206f6620746f6b656e2074686174206981526020017f73206e6f74206f776e000000000000000000000000000000000000000000000081525060400191505060405180910390fd5b600073ffffffffffffffffffffffffffffffffffffffff168273ffffffffffffffffffffffffffffffffffffffff1614151515612596576040517f08c379a00000000000000000000000000000000000000000000000000000000081526004018080602001828103825260248152602001807f4552433732313a207472616e7366657220746f20746865207a65726f2061646481526020017f726573730000000000000000000000000000000000000000000000000000000081525060400191505060405180910390fd5b61259f81612a7b565b6125e6600360008573ffffffffffffffffffffffffffffffffffffffff1673ffffffffffffffffffffffffffffffffffffffff168152602001908152602001600020612b3b565b61262d600360008473ffffffffffffffffffffffffffffffffffffffff1673ffffffffffffffffffffffffffffffffffffffff168152602001908152602001600020612b5e565b816001600083815260200190815260200160002060006101000a81548173ffffffffffffffffffffffffffffffffffffffff021916908373ffffffffffffffffffffffffffffffffffffffff160217905550808273ffffffffffffffffffffffffffffffffffffffff168473ffffffffffffffffffffffffffffffffffffffff167fddf252ad1be2c89b69c2b068fc378daa952ba7f163c4a11628f55a4df523b3ef60405160405180910390a4505050565b600081600001549050919050565b600061270e8473ffffffffffffffffffffffffffffffffffffffff16612b74565b151561271d5760019050612908565b60008473ffffffffffffffffffffffffffffffffffffffff1663150b7a02338887876040518563ffffffff167c0100000000000000000000000000000000000000000000000000000000028152600401808573ffffffffffffffffffffffffffffffffffffffff1673ffffffffffffffffffffffffffffffffffffffff1681526020018473ffffffffffffffffffffffffffffffffffffffff1673ffffffffffffffffffffffffffffffffffffffff16815260200183815260200180602001828103825283818151815260200191508051906020019080838360005b838110156128145780820151818401526020810190506127f9565b50505050905090810190601f1680156128415780820380516001836020036101000a031916815260200191505b5095505050505050602060405180830381600087803b15801561286357600080fd5b505af1158015612877573d6000803e3d6000fd5b505050506040513d602081101561288d57600080fd5b8101908080519060200190929190505050905063150b7a027c0100000000000000000000000000000000000000000000000000000000027bffffffffffffffffffffffffffffffffffffffffffffffffffffffff1916817bffffffffffffffffffffffffffffffffffffffffffffffffffffffff1916149150505b949350505050565b6000600c6000815480929190600101919050555060006127108342600c54604051602001808481526020018381526020018281526020019350505050604051602081830303815290604052805190602001206001900481151561296f57fe5b06905080915050919050565b6129858383612b87565b6008600082815260200190815260200160002054600960008481526020019081526020016000206000018190555080600960008481526020019081526020016000206002018190555060076000828152602001908152602001600020600001600b60008481526020019081526020016000206000019080546001816001161561010002031660029004612a19929190612eae565b50818373ffffffffffffffffffffffffffffffffffffffff16600073ffffffffffffffffffffffffffffffffffffffff167fddf252ad1be2c89b69c2b068fc378daa952ba7f163c4a11628f55a4df523b3ef60405160405180910390a4505050565b600073ffffffffffffffffffffffffffffffffffffffff166002600083815260200190815260200160002060009054906101000a900473ffffffffffffffffffffffffffffffffffffffff1673ffffffffffffffffffffffffffffffffffffffff16141515612b385760006002600083815260200190815260200160002060006101000a81548173ffffffffffffffffffffffffffffffffffffffff021916908373ffffffffffffffffffffffffffffffffffffffff1602179055505b50565b612b5360018260000154612da390919063ffffffff16565b816000018190555050565b6001816000016000828254019250508190555050565b600080823b905060008111915050919050565b600073ffffffffffffffffffffffffffffffffffffffff168273ffffffffffffffffffffffffffffffffffffffff1614151515612c2c576040517f08c379a00000000000000000000000000000000000000000000000000000000081526004018080602001828103825260208152602001807f4552433732313a206d696e7420746f20746865207a65726f206164647265737381525060200191505060405180910390fd5b612c358161224f565b151515612caa576040517f08c379a000000000000000000000000000000000000000000000000000000000815260040180806020018281038252601c8152602001807f4552433732313a20746f6b656e20616c7265616479206d696e7465640000000081525060200191505060405180910390fd5b816001600083815260200190815260200160002060006101000a81548173ffffffffffffffffffffffffffffffffffffffff021916908373ffffffffffffffffffffffffffffffffffffffff160217905550612d43600360008473ffffffffffffffffffffffffffffffffffffffff1673ffffffffffffffffffffffffffffffffffffffff168152602001908152602001600020612b5e565b808273ffffffffffffffffffffffffffffffffffffffff16600073ffffffffffffffffffffffffffffffffffffffff167fddf252ad1be2c89b69c2b068fc378daa952ba7f163c4a11628f55a4df523b3ef60405160405180910390a45050565b6000828211151515612e1d576040517f08c379a000000000000000000000000000000000000000000000000000000000815260040180806020018281038252601e8152602001807f536166654d6174683a207375627472616374696f6e206f766572666c6f77000081525060200191505060405180910390fd5b600082840390508091505092915050565b828054600181600116156101000203166002900490600052602060002090601f016020900481019282601f10612e6f57805160ff1916838001178555612e9d565b82800160010185558215612e9d579182015b82811115612e9c578251825591602001919060010190612e81565b5b509050612eaa9190612f35565b5090565b828054600181600116156101000203166002900490600052602060002090601f016020900481019282601f10612ee75780548555612f24565b82800160010185558215612f2457600052602060002091601f016020900482015b82811115612f23578254825591600101919060010190612f08565b5b509050612f319190612f35565b5090565b612f5791905b80821115612f53576000816000905550600101612f3b565b5090565b9056fea165627a7a723058209e9402a7aca04d2dbae08741e25b6ddb018862c7727d42b7bbd8a470571d01160029",
  "source": "pragma solidity ^0.5.0;\n\nimport \"../node_modules/@openzeppelin/contracts/token/ERC721/ERC721.sol\";\n//import \"../node_modules/@openzeppelin/contracts/token/ERC721/ERC721Mintable.sol\";\n\ncontract Chorder is ERC721{\n\n    constructor () public {\n        owner = msg.sender;\n    }\n    address owner;\n    address saleApprovalAddress;\n\n\n    //@Publisher Publishing content on the network by the producer\n\n    //struct to store content details\n    struct ContentInfo{\n        //hash of the content. Will change this method with NuCypher Integration\n        string ipfsHash;\n        //address of the publisher, to recieve the payments.\n        address publisherAddress;\n        //commission in percentage that the publisher recievers for every subsequent transaction\n        uint256 transactionCommission;\n    }\n\n    //mappings with unique MovieIds.\n    //movieId is the keyvalue, to store the movie details\n    mapping(uint256 => ContentInfo) internal fileinfo;\n    //movieId is the keyvalue, to store the price of the token for initial buy (MRP of the content)\n    mapping (uint256 => uint256) internal setPrice;\n\n    //@TokenOwner reselling the content on the platform\n    struct Reselling{\n        uint256 resalePrice;\n        bool isUpForResale;\n        uint256 movieId;\n    }\n\n    //tokenID to Reselling mapping, to map the token's data and reselling details\n    mapping (uint256 => Reselling) internal reSale;\n\n    //an internally kept balance ledger for all the players on the ecosystem.\n    mapping (address => uint256) internal accountBalance;\n\n    //This will be the tokendata.\n    struct tokenIPFS{\n        string ipfsHash;\n    }\n\n    //tokenId to tokenIPFS mapping\n    mapping(uint256 => tokenIPFS) internal tokenData;\n\n    //arbitrary counter to help generate unique tokenID\n    uint256 tokenCounter;\n\n    //events\n    event Transfer(address indexed from, address indexed to, uint256 indexed tokenId);\n    event MoviePublished(address indexed publisher, uint256 indexed movieId);\n    //event to be emitted when a seller puts out a token for sale\n    event ResalePriceSet(uint256 indexed resalePrice, uint256 indexed tokenId, uint256 indexed movieId);\n\n    /**\n     * @dev Gets the token name\n     * @return string representing the token name\n     */\n    function name() external pure returns (string memory) {  // @dev view/pure\n        return \"ChorderToken\";\n    }\n\n    /**\n     * @dev Gets the token symbol\n     * @return string representing the token symbol\n     */\n    function symbol() external pure returns (string memory) {\n        return \"CHT\";\n    }\n\n\n    //function to add movie details into the chain i.e. publish the movie\n    function addMovieDetails (string memory _ipfshash, uint256 _movieId, uint256 _price, uint256 _transactionCommission) public {\n        require(fileinfo[_movieId].publisherAddress==address(0), \"This movie has already been published!\");\n        fileinfo[_movieId].ipfsHash = _ipfshash;\n        fileinfo[_movieId].publisherAddress = msg.sender;\n        fileinfo[_movieId].transactionCommission = _transactionCommission;\n        setPrice[_movieId] = _price*1 finney;\n        emit MoviePublished(msg.sender, _movieId);\n\n    }\n\n    //tokenId a value that will be less than 10,000,000,000\n    function _generateTokenID(uint256 _movieId) private returns(uint256){\n        tokenCounter++;\n        uint256 tokenid = uint256(keccak256(abi.encodePacked(_movieId, now,tokenCounter))) % 10000;\n        return(tokenid);\n    }\n\n    function _generateToken(address to, uint256 tokenId, uint256 _movieId) internal {\n        _mint(to, tokenId);\n\n        //resalePrice set to initial MRP by default\n        reSale[tokenId].resalePrice = setPrice[_movieId];\n        //token is not up for resale by default; the owner needs to put it up for sale.\n        //(bool is false by default, so no code here)\n        reSale[tokenId].movieId = _movieId;\n        tokenData[tokenId].ipfsHash = fileinfo[_movieId].ipfsHash;\n        //tokenData[tokenId].ipfsHash = fileinfo[isbn].ipfsHash;\n        emit Transfer(address(0), to, tokenId);\n    }\n\n    function buyFromPublisher(uint _movieId) public payable returns (bool) {\n        //to revert back if the buyer doesn't have the price by the author.\n        require(fileinfo[_movieId].publisherAddress != address(0),\"Movie does not exist !\");\n        require(msg.value >= setPrice[_movieId],\"Insufficient funds ! Please pay the price as set by the author.\");\n        uint256 tokenId = _generateTokenID(_movieId);\n        //A new and unique token gets generated, corresponding to the particular movie.\n        _generateToken(msg.sender, tokenId,_movieId);\n        //publisher's balance gets updated\n        accountBalance[fileinfo[_movieId].publisherAddress] += msg.value;\n        return true;\n    }\n\n    //function to set resale price on a token that is being put up for sale\n    function setResalePrice(uint256 newPrice, uint256 tokenId) public{\n        require(ownerOf(tokenId)==msg.sender, \"You are not the owner of this token!\");\n        reSale[tokenId].resalePrice = newPrice*1 finney;\n        reSale[tokenId].isUpForResale = true;\n        //approve(address(this), tokenId);\n        approve(saleApprovalAddress, tokenId);\n        emit ResalePriceSet(newPrice, tokenId, reSale[tokenId].movieId);\n    }\n\n    function buyToken(uint256 tokenId) public payable{\n        //works only if the given token is up for sale\n        require(reSale[tokenId].isUpForResale == true, \"This token hasn't been put for sale by the owner\");\n        //set to a static value. This becomes an auction in future versions\n        require(msg.value >= reSale[tokenId].resalePrice, \"Your price doesn't match the price given by the tokenOwner\");\n\n        //Finding the commissionPercent from fileinfo, and then finding the concrete value of it\n        uint256 resaleCommission = msg.value*((fileinfo[reSale[tokenId].movieId].transactionCommission)/100);\n        //updating accountBalance for the publisher\n        accountBalance[fileinfo[reSale[tokenId].movieId].publisherAddress] += resaleCommission;\n\n        //updating the accountBalance for the tokenOwner\n        accountBalance[ownerOf(tokenId)] += (msg.value - resaleCommission);\n\n        emit Transfer(ownerOf(tokenId), msg.sender, tokenId);\n        transferFrom(ownerOf(tokenId), msg.sender, tokenId);\n        reSale[tokenId].isUpForResale = false;\n    }\n\n\n    //To transfer a token freely to an address. Only owner of the said token can do it.\n    function transfer(address _to, uint256 _tokenId) public{\n        require(ownerOf(_tokenId)==msg.sender, \"You are not the owner of this token!\");\n        transferFrom(ownerOf(_tokenId), _to, _tokenId);\n        reSale[_tokenId].isUpForResale = false;\n        emit Transfer(msg.sender, _to, _tokenId);\n    }\n\n    //To view the tokenData, i.e to consume the content. only tokenOwner can do so.\n    function viewTokenData(uint256 tokenId) public view returns(string memory){\n        require(_exists(tokenId), \"Token doesn't exist!\");\n        require(ownerOf(tokenId)==msg.sender, \"You are not the owner of this token!\");\n        return tokenData[tokenId].ipfsHash;\n    }\n\n\n    //function to get all cash stored in contract back into the respective owners' account\n    function withdrawBalance() public payable{\n        require(accountBalance[msg.sender]!=0, \"You don't have any balance to withdraw\");\n        (msg.sender).transfer(accountBalance[msg.sender]);\n        accountBalance[msg.sender] = 0;\n    }\n\n\n\n}",
  "sourcePath": "/home/hp/ethindia/chorder/contracts/Chorder.sol",
  "compiler": {
    "name": "solc",
    "version": "0.5.0+commit.1d4f565a.Emscripten.clang"
  },
  "schemaVersion": "3.0.6",
  "updatedAt": "2019-08-03T14:59:43.208Z",
  "devdoc": {
    "methods": {
      "approve(address,uint256)": {
        "details": "Approves another address to transfer the given token ID The zero address indicates there is no approved address. There can only be one approved address per token at a given time. Can only be called by the token owner or an approved operator.",
        "params": {
          "to": "address to be approved for the given token ID",
          "tokenId": "uint256 ID of the token to be approved"
        }
      },
      "balanceOf(address)": {
        "details": "Gets the balance of the specified address.",
        "params": {
          "owner": "address to query the balance of"
        },
        "return": "uint256 representing the amount owned by the passed address"
      },
      "getApproved(uint256)": {
        "details": "Gets the approved address for a token ID, or zero if no address set Reverts if the token ID does not exist.",
        "params": {
          "tokenId": "uint256 ID of the token to query the approval of"
        },
        "return": "address currently approved for the given token ID"
      },
      "isApprovedForAll(address,address)": {
        "details": "Tells whether an operator is approved by a given owner.",
        "params": {
          "operator": "operator address which you want to query the approval of",
          "owner": "owner address which you want to query the approval of"
        },
        "return": "bool whether the given operator is approved by the given owner"
      },
      "name()": {
        "details": "Gets the token name",
        "return": "string representing the token name"
      },
      "ownerOf(uint256)": {
        "details": "Gets the owner of the specified token ID.",
        "params": {
          "tokenId": "uint256 ID of the token to query the owner of"
        },
        "return": "address currently marked as the owner of the given token ID"
      },
      "safeTransferFrom(address,address,uint256)": {
        "details": "Safely transfers the ownership of a given token ID to another address If the target address is a contract, it must implement `onERC721Received`, which is called upon a safe transfer, and return the magic value `bytes4(keccak256(\"onERC721Received(address,address,uint256,bytes)\"))`; otherwise, the transfer is reverted. Requires the msg.sender to be the owner, approved, or operator",
        "params": {
          "from": "current owner of the token",
          "to": "address to receive the ownership of the given token ID",
          "tokenId": "uint256 ID of the token to be transferred"
        }
      },
      "safeTransferFrom(address,address,uint256,bytes)": {
        "details": "Safely transfers the ownership of a given token ID to another address If the target address is a contract, it must implement `onERC721Received`, which is called upon a safe transfer, and return the magic value `bytes4(keccak256(\"onERC721Received(address,address,uint256,bytes)\"))`; otherwise, the transfer is reverted. Requires the msg.sender to be the owner, approved, or operator",
        "params": {
          "_data": "bytes data to send along with a safe transfer check",
          "from": "current owner of the token",
          "to": "address to receive the ownership of the given token ID",
          "tokenId": "uint256 ID of the token to be transferred"
        }
      },
      "setApprovalForAll(address,bool)": {
        "details": "Sets or unsets the approval of a given operator An operator is allowed to transfer all tokens of the sender on their behalf.",
        "params": {
          "approved": "representing the status of the approval to be set",
          "to": "operator address to set the approval"
        }
      },
      "supportsInterface(bytes4)": {
        "details": "See `IERC165.supportsInterface`.     * Time complexity O(1), guaranteed to always use less than 30 000 gas."
      },
      "symbol()": {
        "details": "Gets the token symbol",
        "return": "string representing the token symbol"
      },
      "transferFrom(address,address,uint256)": {
        "details": "Transfers the ownership of a given token ID to another address. Usage of this method is discouraged, use `safeTransferFrom` whenever possible. Requires the msg.sender to be the owner, approved, or operator.",
        "params": {
          "from": "current owner of the token",
          "to": "address to receive the ownership of the given token ID",
          "tokenId": "uint256 ID of the token to be transferred"
        }
      }
    }
  },
  "userdoc": {
    "methods": {}
  }
}